{
  "_format": "hh-sol-artifact-1",
  "contractName": "ResearchNFT",
  "sourceName": "contracts/ResearchNFT.sol",
  "abi": [
    {
      "inputs": [],
      "stateMutability": "nonpayable",
      "type": "constructor"
    },
    {
      "inputs": [
        {
          "internalType": "address",
          "name": "sender",
          "type": "address"
        },
        {
          "internalType": "uint256",
          "name": "tokenId",
          "type": "uint256"
        },
        {
          "internalType": "address",
          "name": "owner",
          "type": "address"
        }
      ],
      "name": "ERC721IncorrectOwner",
      "type": "error"
    },
    {
      "inputs": [
        {
          "internalType": "address",
          "name": "operator",
          "type": "address"
        },
        {
          "internalType": "uint256",
          "name": "tokenId",
          "type": "uint256"
        }
      ],
      "name": "ERC721InsufficientApproval",
      "type": "error"
    },
    {
      "inputs": [
        {
          "internalType": "address",
          "name": "approver",
          "type": "address"
        }
      ],
      "name": "ERC721InvalidApprover",
      "type": "error"
    },
    {
      "inputs": [
        {
          "internalType": "address",
          "name": "operator",
          "type": "address"
        }
      ],
      "name": "ERC721InvalidOperator",
      "type": "error"
    },
    {
      "inputs": [
        {
          "internalType": "address",
          "name": "owner",
          "type": "address"
        }
      ],
      "name": "ERC721InvalidOwner",
      "type": "error"
    },
    {
      "inputs": [
        {
          "internalType": "address",
          "name": "receiver",
          "type": "address"
        }
      ],
      "name": "ERC721InvalidReceiver",
      "type": "error"
    },
    {
      "inputs": [
        {
          "internalType": "address",
          "name": "sender",
          "type": "address"
        }
      ],
      "name": "ERC721InvalidSender",
      "type": "error"
    },
    {
      "inputs": [
        {
          "internalType": "uint256",
          "name": "tokenId",
          "type": "uint256"
        }
      ],
      "name": "ERC721NonexistentToken",
      "type": "error"
    },
    {
      "inputs": [
        {
          "internalType": "address",
          "name": "owner",
          "type": "address"
        }
      ],
      "name": "OwnableInvalidOwner",
      "type": "error"
    },
    {
      "inputs": [
        {
          "internalType": "address",
          "name": "account",
          "type": "address"
        }
      ],
      "name": "OwnableUnauthorizedAccount",
      "type": "error"
    },
    {
      "anonymous": false,
      "inputs": [
        {
          "indexed": true,
          "internalType": "address",
          "name": "owner",
          "type": "address"
        },
        {
          "indexed": true,
          "internalType": "address",
          "name": "approved",
          "type": "address"
        },
        {
          "indexed": true,
          "internalType": "uint256",
          "name": "tokenId",
          "type": "uint256"
        }
      ],
      "name": "Approval",
      "type": "event"
    },
    {
      "anonymous": false,
      "inputs": [
        {
          "indexed": true,
          "internalType": "address",
          "name": "owner",
          "type": "address"
        },
        {
          "indexed": true,
          "internalType": "address",
          "name": "operator",
          "type": "address"
        },
        {
          "indexed": false,
          "internalType": "bool",
          "name": "approved",
          "type": "bool"
        }
      ],
      "name": "ApprovalForAll",
      "type": "event"
    },
    {
      "anonymous": false,
      "inputs": [
        {
          "indexed": false,
          "internalType": "uint256",
          "name": "_fromTokenId",
          "type": "uint256"
        },
        {
          "indexed": false,
          "internalType": "uint256",
          "name": "_toTokenId",
          "type": "uint256"
        }
      ],
      "name": "BatchMetadataUpdate",
      "type": "event"
    },
    {
      "anonymous": false,
      "inputs": [
        {
          "indexed": false,
          "internalType": "uint256",
          "name": "_tokenId",
          "type": "uint256"
        }
      ],
      "name": "MetadataUpdate",
      "type": "event"
    },
    {
      "anonymous": false,
      "inputs": [
        {
          "indexed": true,
          "internalType": "address",
          "name": "previousOwner",
          "type": "address"
        },
        {
          "indexed": true,
          "internalType": "address",
          "name": "newOwner",
          "type": "address"
        }
      ],
      "name": "OwnershipTransferred",
      "type": "event"
    },
    {
      "anonymous": false,
      "inputs": [
        {
          "indexed": true,
          "internalType": "address",
          "name": "from",
          "type": "address"
        },
        {
          "indexed": true,
          "internalType": "address",
          "name": "to",
          "type": "address"
        },
        {
          "indexed": true,
          "internalType": "uint256",
          "name": "tokenId",
          "type": "uint256"
        }
      ],
      "name": "Transfer",
      "type": "event"
    },
    {
      "inputs": [
        {
          "internalType": "address",
          "name": "reviewer",
          "type": "address"
        }
      ],
      "name": "addReviewer",
      "outputs": [],
      "stateMutability": "nonpayable",
      "type": "function"
    },
    {
      "inputs": [
        {
          "internalType": "address",
          "name": "to",
          "type": "address"
        },
        {
          "internalType": "uint256",
          "name": "tokenId",
          "type": "uint256"
        }
      ],
      "name": "approve",
      "outputs": [],
      "stateMutability": "nonpayable",
      "type": "function"
    },
    {
      "inputs": [
        {
          "internalType": "address",
          "name": "owner",
          "type": "address"
        }
      ],
      "name": "balanceOf",
      "outputs": [
        {
          "internalType": "uint256",
          "name": "",
          "type": "uint256"
        }
      ],
      "stateMutability": "view",
      "type": "function"
    },
    {
      "inputs": [
        {
          "internalType": "uint256",
          "name": "tokenId",
          "type": "uint256"
        }
      ],
      "name": "getApproved",
      "outputs": [
        {
          "internalType": "address",
          "name": "",
          "type": "address"
        }
      ],
      "stateMutability": "view",
      "type": "function"
    },
    {
      "inputs": [
        {
          "internalType": "address",
          "name": "owner",
          "type": "address"
        },
        {
          "internalType": "address",
          "name": "operator",
          "type": "address"
        }
      ],
      "name": "isApprovedForAll",
      "outputs": [
        {
          "internalType": "bool",
          "name": "",
          "type": "bool"
        }
      ],
      "stateMutability": "view",
      "type": "function"
    },
    {
      "inputs": [
        {
          "internalType": "address",
          "name": "",
          "type": "address"
        }
      ],
      "name": "isReviewer",
      "outputs": [
        {
          "internalType": "bool",
          "name": "",
          "type": "bool"
        }
      ],
      "stateMutability": "view",
      "type": "function"
    },
    {
      "inputs": [
        {
          "internalType": "address",
          "name": "recipient",
          "type": "address"
        },
        {
          "internalType": "string",
          "name": "tokenURI",
          "type": "string"
        }
      ],
      "name": "mintNFT",
      "outputs": [
        {
          "internalType": "uint256",
          "name": "",
          "type": "uint256"
        }
      ],
      "stateMutability": "nonpayable",
      "type": "function"
    },
    {
      "inputs": [],
      "name": "name",
      "outputs": [
        {
          "internalType": "string",
          "name": "",
          "type": "string"
        }
      ],
      "stateMutability": "view",
      "type": "function"
    },
    {
      "inputs": [],
      "name": "owner",
      "outputs": [
        {
          "internalType": "address",
          "name": "",
          "type": "address"
        }
      ],
      "stateMutability": "view",
      "type": "function"
    },
    {
      "inputs": [
        {
          "internalType": "uint256",
          "name": "tokenId",
          "type": "uint256"
        }
      ],
      "name": "ownerOf",
      "outputs": [
        {
          "internalType": "address",
          "name": "",
          "type": "address"
        }
      ],
      "stateMutability": "view",
      "type": "function"
    },
    {
      "inputs": [
        {
          "internalType": "address",
          "name": "reviewer",
          "type": "address"
        }
      ],
      "name": "removeReviewer",
      "outputs": [],
      "stateMutability": "nonpayable",
      "type": "function"
    },
    {
      "inputs": [],
      "name": "renounceOwnership",
      "outputs": [],
      "stateMutability": "nonpayable",
      "type": "function"
    },
    {
      "inputs": [
        {
          "internalType": "uint256",
          "name": "",
          "type": "uint256"
        }
      ],
      "name": "reviewStatus",
      "outputs": [
        {
          "internalType": "string",
          "name": "",
          "type": "string"
        }
      ],
      "stateMutability": "view",
      "type": "function"
    },
    {
      "inputs": [
        {
          "internalType": "address",
          "name": "from",
          "type": "address"
        },
        {
          "internalType": "address",
          "name": "to",
          "type": "address"
        },
        {
          "internalType": "uint256",
          "name": "tokenId",
          "type": "uint256"
        }
      ],
      "name": "safeTransferFrom",
      "outputs": [],
      "stateMutability": "nonpayable",
      "type": "function"
    },
    {
      "inputs": [
        {
          "internalType": "address",
          "name": "from",
          "type": "address"
        },
        {
          "internalType": "address",
          "name": "to",
          "type": "address"
        },
        {
          "internalType": "uint256",
          "name": "tokenId",
          "type": "uint256"
        },
        {
          "internalType": "bytes",
          "name": "data",
          "type": "bytes"
        }
      ],
      "name": "safeTransferFrom",
      "outputs": [],
      "stateMutability": "nonpayable",
      "type": "function"
    },
    {
      "inputs": [
        {
          "internalType": "address",
          "name": "operator",
          "type": "address"
        },
        {
          "internalType": "bool",
          "name": "approved",
          "type": "bool"
        }
      ],
      "name": "setApprovalForAll",
      "outputs": [],
      "stateMutability": "nonpayable",
      "type": "function"
    },
    {
      "inputs": [
        {
          "internalType": "uint256",
          "name": "tokenId",
          "type": "uint256"
        },
        {
          "internalType": "string",
          "name": "status",
          "type": "string"
        }
      ],
      "name": "setReviewStatus",
      "outputs": [],
      "stateMutability": "nonpayable",
      "type": "function"
    },
    {
      "inputs": [
        {
          "internalType": "bytes4",
          "name": "interfaceId",
          "type": "bytes4"
        }
      ],
      "name": "supportsInterface",
      "outputs": [
        {
          "internalType": "bool",
          "name": "",
          "type": "bool"
        }
      ],
      "stateMutability": "view",
      "type": "function"
    },
    {
      "inputs": [],
      "name": "symbol",
      "outputs": [
        {
          "internalType": "string",
          "name": "",
          "type": "string"
        }
      ],
      "stateMutability": "view",
      "type": "function"
    },
    {
      "inputs": [],
      "name": "tokenCounter",
      "outputs": [
        {
          "internalType": "uint256",
          "name": "",
          "type": "uint256"
        }
      ],
      "stateMutability": "view",
      "type": "function"
    },
    {
      "inputs": [
        {
          "internalType": "uint256",
          "name": "tokenId",
          "type": "uint256"
        }
      ],
      "name": "tokenURI",
      "outputs": [
        {
          "internalType": "string",
          "name": "",
          "type": "string"
        }
      ],
      "stateMutability": "view",
      "type": "function"
    },
    {
      "inputs": [
        {
          "internalType": "address",
          "name": "from",
          "type": "address"
        },
        {
          "internalType": "address",
          "name": "to",
          "type": "address"
        },
        {
          "internalType": "uint256",
          "name": "tokenId",
          "type": "uint256"
        }
      ],
      "name": "transferFrom",
      "outputs": [],
      "stateMutability": "nonpayable",
      "type": "function"
    },
    {
      "inputs": [
        {
          "internalType": "address",
          "name": "newOwner",
          "type": "address"
        }
      ],
      "name": "transferOwnership",
      "outputs": [],
      "stateMutability": "nonpayable",
      "type": "function"
    }
  ],
  "bytecode": "0x608060405234801561001057600080fd5b50336040518060400160405280600b81526020017f52657365617263684e46540000000000000000000000000000000000000000008152506040518060400160405280600381526020017f5253430000000000000000000000000000000000000000000000000000000000815250816000908161008d9190610445565b50806001908161009d9190610445565b505050600073ffffffffffffffffffffffffffffffffffffffff168173ffffffffffffffffffffffffffffffffffffffff16036101125760006040517f1e4fbdf70000000000000000000000000000000000000000000000000000000081526004016101099190610558565b60405180910390fd5b6101218161012f60201b60201c565b506000600881905550610573565b6000600760009054906101000a900473ffffffffffffffffffffffffffffffffffffffff16905081600760006101000a81548173ffffffffffffffffffffffffffffffffffffffff021916908373ffffffffffffffffffffffffffffffffffffffff1602179055508173ffffffffffffffffffffffffffffffffffffffff168173ffffffffffffffffffffffffffffffffffffffff167f8be0079c531659141344cd1fd0a4f28419497f9722a3daafe3b4186f6b6457e060405160405180910390a35050565b600081519050919050565b7f4e487b7100000000000000000000000000000000000000000000000000000000600052604160045260246000fd5b7f4e487b7100000000000000000000000000000000000000000000000000000000600052602260045260246000fd5b6000600282049050600182168061027657607f821691505b6020821081036102895761028861022f565b5b50919050565b60008190508160005260206000209050919050565b60006020601f8301049050919050565b600082821b905092915050565b6000600883026102f17fffffffffffffffffffffffffffffffffffffffffffffffffffffffffffffffff826102b4565b6102fb86836102b4565b95508019841693508086168417925050509392505050565b6000819050919050565b6000819050919050565b600061034261033d61033884610313565b61031d565b610313565b9050919050565b6000819050919050565b61035c83610327565b61037061036882610349565b8484546102c1565b825550505050565b600090565b610385610378565b610390818484610353565b505050565b5b818110156103b4576103a960008261037d565b600181019050610396565b5050565b601f8211156103f9576103ca8161028f565b6103d3846102a4565b810160208510156103e2578190505b6103f66103ee856102a4565b830182610395565b50505b505050565b600082821c905092915050565b600061041c600019846008026103fe565b1980831691505092915050565b6000610435838361040b565b9150826002028217905092915050565b61044e826101f5565b67ffffffffffffffff81111561046757610466610200565b5b610471825461025e565b61047c8282856103b8565b600060209050601f8311600181146104af576000841561049d578287015190505b6104a78582610429565b86555061050f565b601f1984166104bd8661028f565b60005b828110156104e5578489015182556001820191506020850194506020810190506104c0565b8683101561050257848901516104fe601f89168261040b565b8355505b6001600288020188555050505b505050505050565b600073ffffffffffffffffffffffffffffffffffffffff82169050919050565b600061054282610517565b9050919050565b61055281610537565b82525050565b600060208201905061056d6000830184610549565b92915050565b612b6d806105826000396000f3fe608060405234801561001057600080fd5b506004361061014d5760003560e01c806373a82b5f116100c3578063c9442dac1161007c578063c9442dac1461039a578063d082e381146103b6578063e985e9c5146103d4578063eacabe1414610404578063f2fde38b14610434578063fdc6258a146104505761014d565b806373a82b5f146102da5780638da5cb5b146102f657806395d89b4114610314578063a22cb46514610332578063b88d4fde1461034e578063c87b56dd1461036a5761014d565b806323b872dd1161011557806323b872dd1461021c57806342842e0e146102385780634fdc41be146102545780636352211e1461027057806370a08231146102a0578063715018a6146102d05761014d565b806301ffc9a71461015257806306fdde0314610182578063081812fc146101a0578063095ea7b3146101d05780631239d7f5146101ec575b600080fd5b61016c60048036038101906101679190611ea5565b610480565b6040516101799190611eed565b60405180910390f35b61018a6104e1565b6040516101979190611f98565b60405180910390f35b6101ba60048036038101906101b59190611ff0565b610573565b6040516101c7919061205e565b60405180910390f35b6101ea60048036038101906101e591906120a5565b61058f565b005b61020660048036038101906102019190611ff0565b6105a5565b6040516102139190611f98565b60405180910390f35b610236600480360381019061023191906120e5565b610645565b005b610252600480360381019061024d91906120e5565b610747565b005b61026e6004803603810190610269919061226d565b610767565b005b61028a60048036038101906102859190611ff0565b61088f565b604051610297919061205e565b60405180910390f35b6102ba60048036038101906102b591906122c9565b6108a1565b6040516102c79190612305565b60405180910390f35b6102d861095b565b005b6102f460048036038101906102ef91906122c9565b61096f565b005b6102fe6109d2565b60405161030b919061205e565b60405180910390f35b61031c6109fc565b6040516103299190611f98565b60405180910390f35b61034c6004803603810190610347919061234c565b610a8e565b005b6103686004803603810190610363919061242d565b610aa4565b005b610384600480360381019061037f9190611ff0565b610ac9565b6040516103919190611f98565b60405180910390f35b6103b460048036038101906103af91906122c9565b610bdc565b005b6103be610c3f565b6040516103cb9190612305565b60405180910390f35b6103ee60048036038101906103e991906124b0565b610c45565b6040516103fb9190611eed565b60405180910390f35b61041e600480360381019061041991906124f0565b610cd9565b60405161042b9190612305565b60405180910390f35b61044e600480360381019061044991906122c9565b610d22565b005b61046a600480360381019061046591906122c9565b610da8565b6040516104779190611eed565b60405180910390f35b6000634906490660e01b7bffffffffffffffffffffffffffffffffffffffffffffffffffffffff1916827bffffffffffffffffffffffffffffffffffffffffffffffffffffffff191614806104da57506104d982610dc8565b5b9050919050565b6060600080546104f09061257b565b80601f016020809104026020016040519081016040528092919081815260200182805461051c9061257b565b80156105695780601f1061053e57610100808354040283529160200191610569565b820191906000526020600020905b81548152906001019060200180831161054c57829003601f168201915b5050505050905090565b600061057e82610eaa565b5061058882610f32565b9050919050565b6105a1828261059c610f6f565b610f77565b5050565b600960205280600052604060002060009150905080546105c49061257b565b80601f01602080910402602001604051908101604052809291908181526020018280546105f09061257b565b801561063d5780601f106106125761010080835404028352916020019161063d565b820191906000526020600020905b81548152906001019060200180831161062057829003601f168201915b505050505081565b600073ffffffffffffffffffffffffffffffffffffffff168273ffffffffffffffffffffffffffffffffffffffff16036106b75760006040517f64a0ae920000000000000000000000000000000000000000000000000000000081526004016106ae919061205e565b60405180910390fd5b60006106cb83836106c6610f6f565b610f89565b90508373ffffffffffffffffffffffffffffffffffffffff168173ffffffffffffffffffffffffffffffffffffffff1614610741578382826040517f64283d7b000000000000000000000000000000000000000000000000000000008152600401610738939291906125ac565b60405180910390fd5b50505050565b61076283838360405180602001604052806000815250610aa4565b505050565b600a60003373ffffffffffffffffffffffffffffffffffffffff1673ffffffffffffffffffffffffffffffffffffffff16815260200190815260200160002060009054906101000a900460ff166107f3576040517f08c379a00000000000000000000000000000000000000000000000000000000081526004016107ea9061262f565b60405180910390fd5b600073ffffffffffffffffffffffffffffffffffffffff166108148361088f565b73ffffffffffffffffffffffffffffffffffffffff160361086a576040517f08c379a00000000000000000000000000000000000000000000000000000000081526004016108619061269b565b60405180910390fd5b8060096000848152602001908152602001600020908161088a9190612867565b505050565b600061089a82610eaa565b9050919050565b60008073ffffffffffffffffffffffffffffffffffffffff168273ffffffffffffffffffffffffffffffffffffffff16036109145760006040517f89c62b6400000000000000000000000000000000000000000000000000000000815260040161090b919061205e565b60405180910390fd5b600360008373ffffffffffffffffffffffffffffffffffffffff1673ffffffffffffffffffffffffffffffffffffffff168152602001908152602001600020549050919050565b6109636111a3565b61096d600061122a565b565b6109776111a3565b6001600a60008373ffffffffffffffffffffffffffffffffffffffff1673ffffffffffffffffffffffffffffffffffffffff16815260200190815260200160002060006101000a81548160ff02191690831515021790555050565b6000600760009054906101000a900473ffffffffffffffffffffffffffffffffffffffff16905090565b606060018054610a0b9061257b565b80601f0160208091040260200160405190810160405280929190818152602001828054610a379061257b565b8015610a845780601f10610a5957610100808354040283529160200191610a84565b820191906000526020600020905b815481529060010190602001808311610a6757829003601f168201915b5050505050905090565b610aa0610a99610f6f565b83836112f0565b5050565b610aaf848484610645565b610ac3610aba610f6f565b8585858561145f565b50505050565b6060610ad482610eaa565b506000600660008481526020019081526020016000208054610af59061257b565b80601f0160208091040260200160405190810160405280929190818152602001828054610b219061257b565b8015610b6e5780601f10610b4357610100808354040283529160200191610b6e565b820191906000526020600020905b815481529060010190602001808311610b5157829003601f168201915b505050505090506000610b7f611610565b90506000815103610b94578192505050610bd7565b600082511115610bc9578082604051602001610bb1929190612975565b60405160208183030381529060405292505050610bd7565b610bd284611627565b925050505b919050565b610be46111a3565b6000600a60008373ffffffffffffffffffffffffffffffffffffffff1673ffffffffffffffffffffffffffffffffffffffff16815260200190815260200160002060006101000a81548160ff02191690831515021790555050565b60085481565b6000600560008473ffffffffffffffffffffffffffffffffffffffff1673ffffffffffffffffffffffffffffffffffffffff16815260200190815260200160002060008373ffffffffffffffffffffffffffffffffffffffff1673ffffffffffffffffffffffffffffffffffffffff16815260200190815260200160002060009054906101000a900460ff16905092915050565b6000610ce36111a3565b60006008549050610cf48482611690565b610cfe81846116ae565b600160086000828254610d1191906129c8565b925050819055508091505092915050565b610d2a6111a3565b600073ffffffffffffffffffffffffffffffffffffffff168173ffffffffffffffffffffffffffffffffffffffff1603610d9c5760006040517f1e4fbdf7000000000000000000000000000000000000000000000000000000008152600401610d93919061205e565b60405180910390fd5b610da58161122a565b50565b600a6020528060005260406000206000915054906101000a900460ff1681565b60007f80ac58cd000000000000000000000000000000000000000000000000000000007bffffffffffffffffffffffffffffffffffffffffffffffffffffffff1916827bffffffffffffffffffffffffffffffffffffffffffffffffffffffff19161480610e9357507f5b5e139f000000000000000000000000000000000000000000000000000000007bffffffffffffffffffffffffffffffffffffffffffffffffffffffff1916827bffffffffffffffffffffffffffffffffffffffffffffffffffffffff1916145b80610ea35750610ea28261170a565b5b9050919050565b600080610eb683611774565b9050600073ffffffffffffffffffffffffffffffffffffffff168173ffffffffffffffffffffffffffffffffffffffff1603610f2957826040517f7e273289000000000000000000000000000000000000000000000000000000008152600401610f209190612305565b60405180910390fd5b80915050919050565b60006004600083815260200190815260200160002060009054906101000a900473ffffffffffffffffffffffffffffffffffffffff169050919050565b600033905090565b610f8483838360016117b1565b505050565b600080610f9584611774565b9050600073ffffffffffffffffffffffffffffffffffffffff168373ffffffffffffffffffffffffffffffffffffffff1614610fd757610fd6818486611976565b5b600073ffffffffffffffffffffffffffffffffffffffff168173ffffffffffffffffffffffffffffffffffffffff1614611068576110196000856000806117b1565b6001600360008373ffffffffffffffffffffffffffffffffffffffff1673ffffffffffffffffffffffffffffffffffffffff168152602001908152602001600020600082825403925050819055505b600073ffffffffffffffffffffffffffffffffffffffff168573ffffffffffffffffffffffffffffffffffffffff16146110eb576001600360008773ffffffffffffffffffffffffffffffffffffffff1673ffffffffffffffffffffffffffffffffffffffff168152602001908152602001600020600082825401925050819055505b846002600086815260200190815260200160002060006101000a81548173ffffffffffffffffffffffffffffffffffffffff021916908373ffffffffffffffffffffffffffffffffffffffff160217905550838573ffffffffffffffffffffffffffffffffffffffff168273ffffffffffffffffffffffffffffffffffffffff167fddf252ad1be2c89b69c2b068fc378daa952ba7f163c4a11628f55a4df523b3ef60405160405180910390a4809150509392505050565b6111ab610f6f565b73ffffffffffffffffffffffffffffffffffffffff166111c96109d2565b73ffffffffffffffffffffffffffffffffffffffff1614611228576111ec610f6f565b6040517f118cdaa700000000000000000000000000000000000000000000000000000000815260040161121f919061205e565b60405180910390fd5b565b6000600760009054906101000a900473ffffffffffffffffffffffffffffffffffffffff16905081600760006101000a81548173ffffffffffffffffffffffffffffffffffffffff021916908373ffffffffffffffffffffffffffffffffffffffff1602179055508173ffffffffffffffffffffffffffffffffffffffff168173ffffffffffffffffffffffffffffffffffffffff167f8be0079c531659141344cd1fd0a4f28419497f9722a3daafe3b4186f6b6457e060405160405180910390a35050565b600073ffffffffffffffffffffffffffffffffffffffff168273ffffffffffffffffffffffffffffffffffffffff160361136157816040517f5b08ba18000000000000000000000000000000000000000000000000000000008152600401611358919061205e565b60405180910390fd5b80600560008573ffffffffffffffffffffffffffffffffffffffff1673ffffffffffffffffffffffffffffffffffffffff16815260200190815260200160002060008473ffffffffffffffffffffffffffffffffffffffff1673ffffffffffffffffffffffffffffffffffffffff16815260200190815260200160002060006101000a81548160ff0219169083151502179055508173ffffffffffffffffffffffffffffffffffffffff168373ffffffffffffffffffffffffffffffffffffffff167f17307eab39ab6107e8899845ad3d59bd9653f200f220920489ca2b5937696c31836040516114529190611eed565b60405180910390a3505050565b60008373ffffffffffffffffffffffffffffffffffffffff163b1115611609578273ffffffffffffffffffffffffffffffffffffffff1663150b7a02868685856040518563ffffffff1660e01b81526004016114be9493929190612a51565b6020604051808303816000875af19250505080156114fa57506040513d601f19601f820116820180604052508101906114f79190612ab2565b60015b61157e573d806000811461152a576040519150601f19603f3d011682016040523d82523d6000602084013e61152f565b606091505b50600081510361157657836040517f64a0ae9200000000000000000000000000000000000000000000000000000000815260040161156d919061205e565b60405180910390fd5b805181602001fd5b63150b7a0260e01b7bffffffffffffffffffffffffffffffffffffffffffffffffffffffff1916817bffffffffffffffffffffffffffffffffffffffffffffffffffffffff19161461160757836040517f64a0ae920000000000000000000000000000000000000000000000000000000081526004016115fe919061205e565b60405180910390fd5b505b5050505050565b606060405180602001604052806000815250905090565b606061163282610eaa565b50600061163d611610565b9050600081511161165d5760405180602001604052806000815250611688565b8061166784611a3a565b604051602001611678929190612975565b6040516020818303038152906040525b915050919050565b6116aa828260405180602001604052806000815250611b08565b5050565b806006600084815260200190815260200160002090816116ce9190612867565b507ff8e1a15aba9398e019f0b49df1a4fde98ee17ae345cb5f6b5e2c27f5033e8ce7826040516116fe9190612305565b60405180910390a15050565b60007f01ffc9a7000000000000000000000000000000000000000000000000000000007bffffffffffffffffffffffffffffffffffffffffffffffffffffffff1916827bffffffffffffffffffffffffffffffffffffffffffffffffffffffff1916149050919050565b60006002600083815260200190815260200160002060009054906101000a900473ffffffffffffffffffffffffffffffffffffffff169050919050565b80806117ea5750600073ffffffffffffffffffffffffffffffffffffffff168273ffffffffffffffffffffffffffffffffffffffff1614155b1561191e5760006117fa84610eaa565b9050600073ffffffffffffffffffffffffffffffffffffffff168373ffffffffffffffffffffffffffffffffffffffff161415801561186557508273ffffffffffffffffffffffffffffffffffffffff168173ffffffffffffffffffffffffffffffffffffffff1614155b801561187857506118768184610c45565b155b156118ba57826040517fa9fbf51f0000000000000000000000000000000000000000000000000000000081526004016118b1919061205e565b60405180910390fd5b811561191c57838573ffffffffffffffffffffffffffffffffffffffff168273ffffffffffffffffffffffffffffffffffffffff167f8c5be1e5ebec7d5bd14f71427d1e84f3dd0314c0f7b2291e5b200ac8c7c3b92560405160405180910390a45b505b836004600085815260200190815260200160002060006101000a81548173ffffffffffffffffffffffffffffffffffffffff021916908373ffffffffffffffffffffffffffffffffffffffff16021790555050505050565b611981838383611b2c565b611a3557600073ffffffffffffffffffffffffffffffffffffffff168373ffffffffffffffffffffffffffffffffffffffff16036119f657806040517f7e2732890000000000000000000000000000000000000000000000000000000081526004016119ed9190612305565b60405180910390fd5b81816040517f177e802f000000000000000000000000000000000000000000000000000000008152600401611a2c929190612adf565b60405180910390fd5b505050565b606060006001611a4984611bed565b01905060008167ffffffffffffffff811115611a6857611a67612142565b5b6040519080825280601f01601f191660200182016040528015611a9a5781602001600182028036833780820191505090505b509050600082602001820190505b600115611afd578080600190039150507f3031323334353637383961626364656600000000000000000000000000000000600a86061a8153600a8581611af157611af0612b08565b5b04945060008503611aa8575b819350505050919050565b611b128383611d40565b611b27611b1d610f6f565b600085858561145f565b505050565b60008073ffffffffffffffffffffffffffffffffffffffff168373ffffffffffffffffffffffffffffffffffffffff1614158015611be457508273ffffffffffffffffffffffffffffffffffffffff168473ffffffffffffffffffffffffffffffffffffffff161480611ba55750611ba48484610c45565b5b80611be357508273ffffffffffffffffffffffffffffffffffffffff16611bcb83610f32565b73ffffffffffffffffffffffffffffffffffffffff16145b5b90509392505050565b600080600090507a184f03e93ff9f4daa797ed6e38ed64bf6a1f0100000000000000008310611c4b577a184f03e93ff9f4daa797ed6e38ed64bf6a1f0100000000000000008381611c4157611c40612b08565b5b0492506040810190505b6d04ee2d6d415b85acef81000000008310611c88576d04ee2d6d415b85acef81000000008381611c7e57611c7d612b08565b5b0492506020810190505b662386f26fc100008310611cb757662386f26fc100008381611cad57611cac612b08565b5b0492506010810190505b6305f5e1008310611ce0576305f5e1008381611cd657611cd5612b08565b5b0492506008810190505b6127108310611d05576127108381611cfb57611cfa612b08565b5b0492506004810190505b60648310611d285760648381611d1e57611d1d612b08565b5b0492506002810190505b600a8310611d37576001810190505b80915050919050565b600073ffffffffffffffffffffffffffffffffffffffff168273ffffffffffffffffffffffffffffffffffffffff1603611db25760006040517f64a0ae92000000000000000000000000000000000000000000000000000000008152600401611da9919061205e565b60405180910390fd5b6000611dc083836000610f89565b9050600073ffffffffffffffffffffffffffffffffffffffff168173ffffffffffffffffffffffffffffffffffffffff1614611e345760006040517f73c6ac6e000000000000000000000000000000000000000000000000000000008152600401611e2b919061205e565b60405180910390fd5b505050565b6000604051905090565b600080fd5b600080fd5b60007fffffffff0000000000000000000000000000000000000000000000000000000082169050919050565b611e8281611e4d565b8114611e8d57600080fd5b50565b600081359050611e9f81611e79565b92915050565b600060208284031215611ebb57611eba611e43565b5b6000611ec984828501611e90565b91505092915050565b60008115159050919050565b611ee781611ed2565b82525050565b6000602082019050611f026000830184611ede565b92915050565b600081519050919050565b600082825260208201905092915050565b60005b83811015611f42578082015181840152602081019050611f27565b60008484015250505050565b6000601f19601f8301169050919050565b6000611f6a82611f08565b611f748185611f13565b9350611f84818560208601611f24565b611f8d81611f4e565b840191505092915050565b60006020820190508181036000830152611fb28184611f5f565b905092915050565b6000819050919050565b611fcd81611fba565b8114611fd857600080fd5b50565b600081359050611fea81611fc4565b92915050565b60006020828403121561200657612005611e43565b5b600061201484828501611fdb565b91505092915050565b600073ffffffffffffffffffffffffffffffffffffffff82169050919050565b60006120488261201d565b9050919050565b6120588161203d565b82525050565b6000602082019050612073600083018461204f565b92915050565b6120828161203d565b811461208d57600080fd5b50565b60008135905061209f81612079565b92915050565b600080604083850312156120bc576120bb611e43565b5b60006120ca85828601612090565b92505060206120db85828601611fdb565b9150509250929050565b6000806000606084860312156120fe576120fd611e43565b5b600061210c86828701612090565b935050602061211d86828701612090565b925050604061212e86828701611fdb565b9150509250925092565b600080fd5b600080fd5b7f4e487b7100000000000000000000000000000000000000000000000000000000600052604160045260246000fd5b61217a82611f4e565b810181811067ffffffffffffffff8211171561219957612198612142565b5b80604052505050565b60006121ac611e39565b90506121b88282612171565b919050565b600067ffffffffffffffff8211156121d8576121d7612142565b5b6121e182611f4e565b9050602081019050919050565b82818337600083830152505050565b600061221061220b846121bd565b6121a2565b90508281526020810184848401111561222c5761222b61213d565b5b6122378482856121ee565b509392505050565b600082601f83011261225457612253612138565b5b81356122648482602086016121fd565b91505092915050565b6000806040838503121561228457612283611e43565b5b600061229285828601611fdb565b925050602083013567ffffffffffffffff8111156122b3576122b2611e48565b5b6122bf8582860161223f565b9150509250929050565b6000602082840312156122df576122de611e43565b5b60006122ed84828501612090565b91505092915050565b6122ff81611fba565b82525050565b600060208201905061231a60008301846122f6565b92915050565b61232981611ed2565b811461233457600080fd5b50565b60008135905061234681612320565b92915050565b6000806040838503121561236357612362611e43565b5b600061237185828601612090565b925050602061238285828601612337565b9150509250929050565b600067ffffffffffffffff8211156123a7576123a6612142565b5b6123b082611f4e565b9050602081019050919050565b60006123d06123cb8461238c565b6121a2565b9050828152602081018484840111156123ec576123eb61213d565b5b6123f78482856121ee565b509392505050565b600082601f83011261241457612413612138565b5b81356124248482602086016123bd565b91505092915050565b6000806000806080858703121561244757612446611e43565b5b600061245587828801612090565b945050602061246687828801612090565b935050604061247787828801611fdb565b925050606085013567ffffffffffffffff81111561249857612497611e48565b5b6124a4878288016123ff565b91505092959194509250565b600080604083850312156124c7576124c6611e43565b5b60006124d585828601612090565b92505060206124e685828601612090565b9150509250929050565b6000806040838503121561250757612506611e43565b5b600061251585828601612090565b925050602083013567ffffffffffffffff81111561253657612535611e48565b5b6125428582860161223f565b9150509250929050565b7f4e487b7100000000000000000000000000000000000000000000000000000000600052602260045260246000fd5b6000600282049050600182168061259357607f821691505b6020821081036125a6576125a561254c565b5b50919050565b60006060820190506125c1600083018661204f565b6125ce60208301856122f6565b6125db604083018461204f565b949350505050565b7f4e6f7420617574686f72697a6564207265766965776572000000000000000000600082015250565b6000612619601783611f13565b9150612624826125e3565b602082019050919050565b600060208201905081810360008301526126488161260c565b9050919050565b7f546f6b656e20646f6573206e6f74206578697374000000000000000000000000600082015250565b6000612685601483611f13565b91506126908261264f565b602082019050919050565b600060208201905081810360008301526126b481612678565b9050919050565b60008190508160005260206000209050919050565b60006020601f8301049050919050565b600082821b905092915050565b60006008830261271d7fffffffffffffffffffffffffffffffffffffffffffffffffffffffffffffffff826126e0565b61272786836126e0565b95508019841693508086168417925050509392505050565b6000819050919050565b600061276461275f61275a84611fba565b61273f565b611fba565b9050919050565b6000819050919050565b61277e83612749565b61279261278a8261276b565b8484546126ed565b825550505050565b600090565b6127a761279a565b6127b2818484612775565b505050565b5b818110156127d6576127cb60008261279f565b6001810190506127b8565b5050565b601f82111561281b576127ec816126bb565b6127f5846126d0565b81016020851015612804578190505b612818612810856126d0565b8301826127b7565b50505b505050565b600082821c905092915050565b600061283e60001984600802612820565b1980831691505092915050565b6000612857838361282d565b9150826002028217905092915050565b61287082611f08565b67ffffffffffffffff81111561288957612888612142565b5b612893825461257b565b61289e8282856127da565b600060209050601f8311600181146128d157600084156128bf578287015190505b6128c9858261284b565b865550612931565b601f1984166128df866126bb565b60005b82811015612907578489015182556001820191506020850194506020810190506128e2565b868310156129245784890151612920601f89168261282d565b8355505b6001600288020188555050505b505050505050565b600081905092915050565b600061294f82611f08565b6129598185612939565b9350612969818560208601611f24565b80840191505092915050565b60006129818285612944565b915061298d8284612944565b91508190509392505050565b7f4e487b7100000000000000000000000000000000000000000000000000000000600052601160045260246000fd5b60006129d382611fba565b91506129de83611fba565b92508282019050808211156129f6576129f5612999565b5b92915050565b600081519050919050565b600082825260208201905092915050565b6000612a23826129fc565b612a2d8185612a07565b9350612a3d818560208601611f24565b612a4681611f4e565b840191505092915050565b6000608082019050612a66600083018761204f565b612a73602083018661204f565b612a8060408301856122f6565b8181036060830152612a928184612a18565b905095945050505050565b600081519050612aac81611e79565b92915050565b600060208284031215612ac857612ac7611e43565b5b6000612ad684828501612a9d565b91505092915050565b6000604082019050612af4600083018561204f565b612b0160208301846122f6565b9392505050565b7f4e487b7100000000000000000000000000000000000000000000000000000000600052601260045260246000fdfea264697066735822122020dc4eca75a05473a489b0696a15ea1fcf161c0aa566fbb98eac4fbd75ba6fa164736f6c634300081c0033",
  "linkReferences": {},
  "deployedLinkReferences": {}
}